:020000040800F2
:1000000000500020450B0008190B00081B0B0008CE
:100010001D0B00081F0B0008210B0008000000004A
:10002000000000000000000000000000230B00089A
:10003000250B000800000000270B0008290B000812
:100040008D0B00088D0B00088D0B00088D0B000830
:100050008D0B00088D0B00088D0B00088D0B000820
:100060008D0B00088D0B00088D0B00088D0B000810
:100070008D0B00088D0B00088D0B00088D0B000800
:100080008D0B00088D0B00088D0B00088D0B0008F0
:10009000310B00088D0B00088D0B00088D0B00083C
:1000A0008D0B00088D0B00088D0B00088D0B0008D0
:1000B0008D0B00088D0B00088D0B00088D0B0008C0
:1000C0008D0B00088D0B00088D0B00088D0B0008B0
:1000D0008D0B00088D0B00088D0B00088D0B0008A0
:1000E0008D0B00088D0B00088D0B00080000000030
:1000F0000000000000000000000000000000000000
:0C01000000000000000000005FF808F1A3
:10010C000348044B834202D0034B03B1184770479A
:10011C00E0000020E0000020000000000548064B35
:10012C001B1AD90F01EBA301491002D0034B03B1E9
:10013C0018477047E0000020E0000020000000009D
:10014C0010B5064C237843B9FFF7DAFF044B13B113
:10015C000448AFF300800123237010BDE0000020A1
:10016C0000000000E854000808B5054B1BB1054918
:10017C000548AFF30080BDE80840FFF7CFBF00BFD4
:10018C0000000000E4000020E854000800B585B031
:10019C0000230193029303931048114A0260836079
:1001AC00037303754FF46022C26143600123036142
:1001BC0000F034FE60B901230193029300230393F2
:1001CC0001A9064800F03CFD28B905B05DF804FB18
:1001DC0000F0AAF9EFE700F0A7F9F6E7FC00002021
:1001EC000024014000B587B00023029303930493CD
:1001FC0005930268114B9A4202D007B05DF804FBDC
:10020C0003F56C439A6942F400729A619A6902F49C
:10021C0000720092009A9A6942F004029A619B69FA
:10022C0003F004030193019B022302930323039322
:10023C0002A9034800F086FFDFE700BF002401405D
:10024C0000080140002105E000BF0133044A93423D
:10025C00FAD90131814201D20023F7E7704700BF80
:10026C007FFC0A0030B585B00B2300930323039366
:10027C0011250195064C6946204600F063FF0A23C0
:10028C00009301956946204600F05CFF05B030BD37
:10029C00000C014010B5104C01224FF400612046B7
:1002AC0001F016F901224FF48061204601F010F99B
:1002BC006420FFF7C7FF00224FF40061204601F0D5
:1002CC0007F96420FFF7BEFF00224FF4806120463F
:1002DC0001F0FEF810BD00BF000C014010B50D4C34
:1002EC0000224FF40061204601F0F2F86420FFF781
:1002FC00A9FF01224FF48061204601F0E9F8642047
:10030C00FFF7A0FF01224FF40061204601F0E0F856
:10031C0010BD00BF000C014070B5044600251CE068
:10032C0000224FF40061134801F0D2F86420FFF76B
:10033C0089FF104E01224FF48061304601F0C8F85D
:10034C006420FFF77FFF00224FF48061304601F0FC
:10035C00BFF86400E4B20135EDB2072D09D814F0F2
:10036C00800FDDD001224FF40061024801F0B0F89B
:10037C00DCE770BD000C014070B501224FF4006148
:10038C00154801F0A5F8002425460AE000224FF498
:10039C008061114801F09CF86420FFF753FF013590
:1003AC00EDB2072D15D86400E4B20B4E01224FF4C8
:1003BC008061304601F08CF86420FFF743FF4FF466
:1003CC000061304601F070F80028DFD044F00104E1
:1003DC00DCE7204670BD00BF000C014070B584B056
:1003EC0005460E46FFF756FF3920FFF795FF002410
:1003FC0001E00134E4B2052C0CD8FFF7BDFF04ABCF
:10040C0003EB440323F80C0C042CF2D80020FFF768
:10041C0083FFEEE7FFF762FFBDF80620120292B2EF
:10042C00BDF8083013449BB21B019BB2BDF80A20E7
:10043C0003EB12133380120202F47062BDF80C301D
:10044C0013449BB21B029BB2BDF80E2013442B80AD
:10045C0004B070BD70B588B0002404940594069463
:10046C0007942D4B9A6942F010029A619A6902F036
:10047C0010020092009A9A6942F020029A619A69DD
:10048C0002F020020192019A9A6942F004029A61E8
:10049C009A6902F004020292029A9A6942F00802E6
:1004AC009A619B6903F008030393039B1B4D22463F
:1004BC004FF44661284601F00BF84FF46043049367
:1004CC000326059604A9164800F03CFE48F2FD737D
:1004DC000493059604A9134800F034FE4FF29733A9
:1004EC000493059604A9284600F02CFE4FF44663AD
:1004FC0004930123059306940223079304A9284629
:10050C0000F020FE082304930594069404A92846C1
:10051C0000F018FE08B070BD00100240000C014045
:10052C00001001400008014072B6FEE700B595B01E
:10053C00282200210DEB020004F0ECFE00230593B1
:10054C0006930793089309930193029303930493DF
:10055C0009230A934FF480330B9301220E921092CD
:10056C000222119212934FF4801313930AA801F0F4
:10057C00EBFFF0B90F23059302210691002307939B
:10058C004FF480620892099305A802F0B1FA90B971
:10059C00132301934FF4007302934FF4004303931E
:1005AC000023049301A802F0CFFB30B915B05DF81D
:1005BC0004FBFFF7B9FFFFF7B7FFFFF7B5FF00002C
:1005CC0010B582B000F004FBFFF7B0FFFFF742FF5D
:1005DC00FFF7DCFD00F042FA04F0C8FC00F0CBF9A8
:1005EC0000F0EFF810240094042340F2D2420221D0
:1005FC00002000F05FF92346054A0421032000F097
:10060C009FF9FFF72FFE00210846FFF7E7FEFEE7F4
:10061C00005500087047000008B570B9012906D0D4
:10062C0069B9002280210E4800F052FF07E0012238
:10063C0080210B4800F04CFF01E0012800D008BDE0
:10064C00012907D00029FAD100224021044800F0EA
:10065C003FFFF4E701224021014800F039FFEEE7AB
:10066C00000C014008B501210520FFF7D5FF012141
:10067C000620FFF7D1FF00210520FFF7CDFF002159
:10068C000620FFF7C9FF08BD08B501210620FFF7BA
:10069C00C3FF00210520FFF7BFFF01210620FFF754
:1006AC00BBFF01210520FFF7B7FF01210620FFF753
:1006BC00B3FF08BD08B500210520FFF7ADFF0121F0
:1006CC000620FFF7A9FF00210620FFF7A5FF08BDB4
:1006DC0038B5044600210620FFF79EFF00250FE0E9
:1006EC0000210520FFF798FF6400E4B201210620E9
:1006FC00FFF792FF00210620FFF78EFF0135EDB2C8
:10070C00072D07D814F0800FEAD001210520FFF740
:10071C0083FFE9E738BD10B50446FFF7A3FF782047
:10072C00FFF7D6FFFFF7C6FF0020FFF7D1FFFFF75B
:10073C00C1FF2046FFF7CCFFFFF7BCFFFFF7A4FF7C
:10074C0010BD10B50446FFF78DFF7820FFF7C0FFF2
:10075C00FFF7B0FF4020FFF7BBFFFFF7ABFF2046D2
:10076C00FFF7B6FFFFF7A6FFFFF78EFF10BD08B52A
:10077C0011B1FFF7E6FF08BDFFF7CDFFFBE710B5A2
:10078C000446A1F150000021C0B2FFF7F0FF200990
:10079C00002140F01000FFF7EAFF002104F00F00E9
:1007AC00FFF7E5FF10BD08B500218D20FFF7DFFF37
:1007BC0000211420FFF7DBFF0021AF20FFF7D7FF4C
:1007CC0008BD38B500250AE001210020FFF7CFFF56
:1007DC000134E4B214F0800FF6D00135EDB2072DE0
:1007EC000FD8A5F150000021C0B2FFF7C0FF0021C7
:1007FC000846FFF7BCFF00211020FFF7B8FF0024CC
:10080C00E8E738BDF8B507460E46203AD5B210F0E9
:10081C00800F07D1102B09D031463846FFF7AFFFB8
:10082C00002433E00236F6B20027F3E731463846AF
:10083C00FFF7A5FF002408E004EB05130121154A7E
:10084C00D05CFFF794FF0134E4B2072CF4D9711C8F
:10085C00C9B23846FFF793FF002409E004EB0513F7
:10086C00083301210B4AD05CFFF781FF0134E4B25D
:10087C00072CF3D90CE005EB4502074B03EB4203C5
:10088C000121185DFFF773FF0134E4B2052CF2D996
:10089C00F8BD00BF08550008F85A000802460120B0
:1008AC0003E002FB00F080B219464B1EDBB20029BC
:1008BC00F7D170472DE9F0478246894690461D4690
:1008CC009DF8206000273C4619E0700804FB00F0FE
:1008DC00C0B25044334620224946C0B2FFF792FFC3
:1008EC000BE0700804FB00F0C0B2303250443346C9
:1008FC00D2B24946C0B2FFF785FF0134E4B2AC4234
:10090C001AD2291BC9B20139C9B20A20FFF7C6FF96
:10091C00B8FBF0F0094BA3FB0023DB0803EB8303CC
:10092C00A0EB4300C2B2002FDBD16B1E9C42D8DA85
:10093C00002ACAD00127D4E7BDE8F087CDCCCCCCB7
:10094C002DE9F04104460E4617469846002501E075
:10095C000135EDB27A5D62B1434631462046FFF770
:10096C0051FF0834E4B2782CF2D90236F6B20024E6
:10097C00EEE7BDE8F08108B50021AE20FFF7F7FEE9
:10098C0000210846FFF7F3FE00211020FFF7EFFED1
:10099C0000214020FFF7EBFE0021B020FFF7E7FE1F
:1009AC0000218120FFF7E3FE0021FF20FFF7DFFE8F
:1009BC000021A120FFF7DBFE0021A620FFF7D7FEC8
:1009CC000021A820FFF7D3FE00213F20FFF7CFFE28
:1009DC000021C820FFF7CBFE0021D320FFF7C7FE74
:1009EC0000210846FFF7C3FE0021D520FFF7BFFE0C
:1009FC0000218020FFF7BBFE0021D820FFF7B7FEB7
:100A0C0000210520FFF7B3FE0021D920FFF7AFFE30
:100A1C000021F120FFF7ABFE0021DA20FFF7A7FE43
:100A2C0000211220FFF7A3FE0021DB20FFF79FFE21
:100A3C0000213020FFF79BFE00218D20FFF797FE51
:100A4C0000211420FFF793FE0021AF20FFF78FFE4B
:100A5C00FFF7A9FEFFF7B5FE08BD000008B5084872
:100A6C00084B03604FF0FF3343604FF48073836097
:100A7C0002F0F4FA00B908BDFFF756FDFBE700BF22
:100A8C002C0100200028004002680C4B9A4200D038
:100A9C00704700B583B001F03BFD094BDA6942F0B9
:100AAC000062DA61DB6903F000630193019B054B83
:100ABC000122C3F83C2403B05DF804FB002800407D
:100ACC00001002400000424282B00E4B9A6942F084
:100ADC0001029A619A6902F001020092009ADA69A5
:100AEC0042F08052DA61DB6903F080530193019B81
:100AFC00054A536823F0E06343F00073536002B07F
:100B0C00704700BF0010024000000140FEE7FEE706
:100B1C00FEE7FEE7FEE770477047704708B500F048
:100B2C0069F808BD08B5024801F009FB08BD00BF13
:100B3C00280B002070470000FFF7FCFF0B480C4906
:100B4C000C4A002302E0D458C4500433C4188C421D
:100B5C00F9D3094A094C002301E013600432A24284
:100B6C00FBD304F027FCFFF72BFD7047000000209F
:100B7C00E000002038600008E0000020B00F0020EA
:100B8C00FEE7000010B504460E4B1A784FF47A734A
:100B9C00B3FBF2F30C4A1068B0FBF3F000F0BEFAB2
:100BAC0068B90F2C01D901200AE0002221464FF030
:100BBC00FF3000F079FA054B1C60002000E00120AA
:100BCC0010BD00BF04000020000000200800002021
:100BDC0008B5074A136843F010031360032000F0B4
:100BEC0045FA0F20FFF7CEFFFFF76EFF002008BD80
:100BFC0000200240034A1168034B1B780B4413601E
:100C0C00704700BF4001002004000020014B186811
:100C1C00704700BF4001002038B50446FFF7F6FFCF
:100C2C000546B4F1FF3F02D0044B1B781C44FFF780
:100C3C00EDFF401BA042FAD338BD00BF04000020DA
:100C4C0030B583B005460C46002301930368594A1E
:100C5C00934208D002F58062934204D040F2D671E0
:100C6C005548FFF7D7FC2368112B38D86368013B34
:100C7C000F2B3AD8A368072B3DD895F82430012BBD
:100C8C0000F09680012385F824306368062B38D851
:100C9C002868426B03EB8303053B1F21994022EA32
:100CAC000102216899400A4342632368092B46D903
:100CBC002868C26803EB43031E3B0721994022EAD4
:100CCC000102A16899400A43C2602368103B012BC2
:100CDC0042D90020002385F8243003B030BD40F207
:100CEC00D7713548FFF796FCC0E74FF4FB613248EB
:100CFC00FFF790FCBEE740F2D9712F48FFF78AFC52
:100D0C00BBE70C2B0DD82868026B03EB8303233B4A
:100D1C001F21994022EA0102216899400A4302638B
:100D2C00C3E72868C26A03EB8303413B1F21994048
:100D3C0022EA0102216899400A43C262B5E7286899
:100D4C00026903EB43030721994022EA0102A168DF
:100D5C0099400A430261B8E72B68164A934205D0C2
:100D6C00AB6A43F02003AB620120B3E79A6812F43C
:100D7C00000F1BD19A6842F400029A602368102B72
:100D8C0001D00020A6E70D4B1B680D4AA2FB0323E4
:100D9C009B0C03EB83035B00019302E0019B013B83
:100DAC000193019B002BF9D1002093E7002091E7E0
:100DBC00022092E700240140385D0008000000206A
:100DCC0083DE1B4338B503689A6812F0010F01D11A
:100DDC00002038BD04469A6822F001029A60FFF7A1
:100DEC0015FF054623689B6813F0010F13D0FFF71E
:100DFC000DFF431B022BF5D923689B6813F0010FE1
:100E0C00F0D0A36A43F01003A362E36A43F001033A
:100E1C00E3620120DDE70020DBE70000002800F0A2
:100E2C00E78070B504460368724A934208D002F515
:100E3C008062934204D040F2A9116F48FFF7EAFB9D
:100E4C00636813B1B3F5006F7ED1A36813B1B3F52A
:100E5C00807F7FD1237B012B00F28280E3698BB1F1
:100E6C00B3F5003F0ED0B3F5C02F0BD0B3F5002F68
:100E7C0008D0B3F5202F05D0B3F5402F02D0B3F531
:100E8C00602F73D1A36863B12369013B0F2B73D817
:100E9C00237D012B76D8237D1BB1A369013B072B46
:100EAC0076D8A36A002B79D02046FFF78BFFA36A74
:100EBC0013F0100340F09680002840F09380A26A53
:100ECC0022F4885222F0020242F00202A26262680C
:100EDC00E1690A43217B42EA4102A568B5F5807FAE
:100EEC0002D0012D61D01D46267D012E60D02668D2
:100EFC00716821F46941294371602568AE683F49E6
:100F0C0031401143A960A168B1F5807F01D001295E
:100F1C0002D12369013B1B052568E96A21F47001A4
:100F2C000B43EB6223689968354B0B409A4250D0C7
:100F3C00A36A23F0120343F01003A362E36A43F0A5
:100F4C000103E362012052E04FF4D5712A48FFF708
:100F5C0061FB7AE740F2AB112748FFF75BFB79E7BF
:100F6C004FF4D6712448FFF755FB77E740F2AD11EB
:100F7C002148FFF74FFB85E740F2B1111E48FFF700
:100F8C0049FB85E74FF4D9711B48FFF743FB82E718
:100F9C0040F2B5111848FFF73DFB82E7E36284F895
:100FAC0024302046FFF71EF97EE74FF480759BE74F
:100FBC0031B9A169013945EA413141F4006596E73F
:100FCC00A16A41F02001A162E16A41F00101E162F4
:100FDC008DE70023E362A36A23F0030343F00103CC
:100FEC00A36204E0A36A43F01003A362012070BD66
:100FFC000120704700240140385D0008FDF7E1FF37
:10100C00FE0E1FFF002808DB0901C9B200F1604089
:10101C0000F5614080F80013704700F00F000901E3
:10102C00C9B2014B1954704714ED00E000B500F043
:10103C000700C0F1070CBCF1040F28BF4FF0040CE3
:10104C00031D062B0FD9C31E4FF0FF3E0EFA0CF0FA
:10105C0021EA000199400EFA03FE22EA0E0241EA4F
:10106C0002005DF804FB0023EEE7000010B5044617
:10107C00C31E042B0FD80A4AD36823F4E0631B0465
:10108C001B0C240204F4E064234343F0BF6343F4D9
:10109C000033D36010BD91210248FFF7BBFAEAE799
:1010AC0000ED00E0845D000870B506460C46154660
:1010BC000F2A0ED80F2C11D80B4BD8682A46214674
:1010CC00C0F30220FFF7B2FF01463046FFF79AFF4C
:1010DC0070BDA9210548FFF79DFAEBE7AA2103484B
:1010EC00FFF798FAE8E700BF00ED00E0845D000828
:1010FC0008B5002808DB00F01F02400901239340CB
:10110C00044A42F8203008BDBD210348FFF782FA9B
:10111C00F9E700BF00E100E0845D00080138B0F1A0
:10112C00807F0BD24FF0E0235861054AF02182F802
:10113C0023100020986107221A6170470120704724
:10114C0000ED00E02DE9F04383B007460E467B4BE3
:10115C00984213D003F5806398420FD003F5806357
:10116C0098420BD003F58063984207D003F5806357
:10117C00984203D0BD217248FFF74CFA33689AB2FB
:10118C0012B1B3F5803F03D3BE216D48FFF742FA8D
:10119C007368012B11D96B4A93420ED014D8A2F567
:1011AC008012934209D003D9674A934205D016E0C6
:1011BC00032B06D9113B012B11D84FF000094D46DA
:1011CC00F8E0022B0BD3F8E7604A9342F5D002F516
:1011DC0080329342F1D0A2F580129342EDD0BF2120
:1011EC005748FFF717FAE8E7594A934210D007D946
:1011FC00564A93420CD002F58032934208D018E044
:10120C00A2F58012934203D002F5702293420CD1C6
:10121C00B368022B7CD8B368002B00F08580012BBF
:10122C007BD07C614FF0080903E0A2F58012934259
:10123C00EED0B8F1FF0F7AD83846AA0003680F2118
:10124C00914023EA010309FA02F213430360736825
:10125C0013F0805F00F0AD803E4B9A6942F00102C2
:10126C009A619B6903F001030193019BAA08911CED
:10127C00394B53F8210005F0030189000F238B40F3
:10128C0020EA03002D4B9F4268D003F580639F42F8
:10129C0000F0E28003F580639F4200F0DF8003F5ED
:1012AC0080639F4248D0042359E0F368013B022B32
:1012BC0002D8D6F80C90BCE7D5212148FFF7AAF943
:1012CC00F7E7F368013B022B03D8F36803F1040939
:1012DC00AFE7DC211A48FFF79DF9F6E7F368013B0D
:1012EC00022B03D8F36803F10809A2E7E3211448A1
:1012FC00FFF790F9F6E7F368013B022B03D8F3688C
:10130C0003F10C0995E7EA210D48FFF783F9F6E79D
:10131C00F7210B48FFF77EF97DE73C614FF0080998
:10132C0087E74FF0000984E74FF0040981E7381D87
:10133C00A5F10802920081E7032310E000080140A8
:10134C00D45D0008000021100000121000003110C4
:10135C0000002210001002400000014000238B40CE
:10136C00034302324C4941F82230736813F4801F56
:10137C0076D04A4A936843EA08039360736813F47F
:10138C00001F73D0454AD36843EA0803D3607368DF
:10139C0013F4003F70D0414A536843EA080353608A
:1013AC00736813F4803F6DD03C4A136843EA08031A
:1013BC0013600135336833FA05F269D00124AC406F
:1013CC0003EA040834EA0303F3D1354B9F4213D0EC
:1013DC0003F580639F420FD003F580639F420BD0CF
:1013EC0003F580639F4207D003F580639F4203D0CF
:1013FC00CD212C48FFF70EF97368122B3FF6F4AE93
:10140C00122B3FF616AF01A252F823F01D12000862
:10141C00B7120008E91200082F1300083F12000849
:10142C003F1200083F1200083F1200083F1200084C
:10143C003F1200083F1200083F1200083F1200083C
:10144C003F1200083F1200083F1200083F1200082C
:10145C00CF12000803130008012380E702237EE764
:10146C000E4A936823EA0803936087E70B4AD36814
:10147C0023EA0803D3608AE7084A536823EA08037F
:10148C0053608DE7054A136823EA0803136090E75D
:10149C0003B0BDE8F08300BF000001400004014030
:1014AC0000080140D45D000838B504460D4621B152
:1014BC00A3681D4207D0012038BD4FF4DA710348F0
:1014CC00FFF7A8F8F4E70020F6E700BFD45D0008AA
:1014DC0070B5054614460E4621B1012C08D86CB1E6
:1014EC002E6170BD4FF4EA710648FFF793F8F4E7EC
:1014FC0040F2D5110348FFF78DF8F0E736042E6162
:10150C00EFE700BFD45D000838B512F4804F44D02B
:10151C000468B4F850309BB291F800C003EBCC03D4
:10152C00023304EB4304B4F80044C4F309048B699C
:10153C00A34228D31B1B8B618B697BB9056835F8DB
:10154C002C309BB223F4804323F0700383F40053BC
:10155C0043F4004343F0800325F82C3012F0400F85
:10156C000ED002680D7832F825309BB223F4E0439C
:10157C0023F0700343F4004343F0C00322F82530FA
:10158C0024B9204638BD00238B61D5E723460A8950
:10159C004969006802F076FCF3E70468B4F850304F
:1015AC009BB291F800C003EBCC03063304EB43046D
:1015BC00B4F80044C4F309048B69A3422FD31B1B5A
:1015CC008B618B697BB9056835F82C309BB223F4A1
:1015DC00804323F0700383F4005343F4004343F03F
:1015EC00800325F82C3012F0400F0FD1026891F8CF
:1015FC0000C032F82C309BB223F4E04323F070038C
:10160C0043F4004343F0C00322F82C30002CB8D034
:10161C0023464A894969006802F034FCB1E700238B
:10162C008B61CEE770B586B0002800F08A80044646
:10163C000268454B9A4203D091214448FEF7EAFFD9
:10164C0094F8A932EBB1032384F8A932206801F095
:10165C0097FD254655F8106BEC460FCDACE80F0006
:10166C002B68CCF80030231D0ECB304601F078FDF2
:10167C00054660B1022384F8A9320125284606B03C
:10168C0070BD84F8A832204603F04AFDDBE7002148
:10169C00206801F07FFD2B4616E05A1C02EB8201FC
:1016AC0004EBC1010120487002EB820104F83130D7
:1016BC0004EBC1000021C17003EB830004EBC000FC
:1016CC008163C1630164D3B261688B42E5D316E0D8
:1016DC0005EB850304EBC303002283F8692183F82F
:1016EC00685183F86B21C3F87821C3F87C2105EB92
:1016FC00850304EBC303C3F880210135EDB2A94285
:10170C00E6D8254655F8106BEC460FCDACE80F002B
:10171C002B68CCF80030231D0ECB304601F03CFD7D
:10172C00054620B1022384F8A9320125A6E700233F
:10173C0084F82430012384F8A932206801F0A0FF3A
:10174C009CE701259AE700BF005C0040205E000882
:10175C0038B590F8A832012B11D00446012580F839
:10176C00A852006801F003FD2946204603F0D1FD84
:10177C00206801F083FF002084F8A80238BD022005
:10178C00FCE790F8A832012B12D010B504460123C7
:10179C0080F8A832006801F0F3FC0021204603F029
:1017AC00B8FD206801F06CFF002084F8A80210BD81
:1017BC000220704770B505460C46164612F0400FD5
:1017CC0000F00E810268B2F850309BB2097803EB3E
:1017DC00C103023302EB4302B2F80024C2F3090244
:1017EC00A36993424ED99B1AA361A369002B66D1BE
:1017FC006378002B49D12B68B3F8502092B2134474
:10180C0003EB0113B3F80424C2F30902A3F8042474
:10181C00B3F804246FEA42426FEA524292B2A3F840
:10182C0004242B686278002A3CD1B3F8502092B281
:10183C001344227803EB0213B3F80C24C2F309020D
:10184C00A3F80C24B3F80C246FEA42426FEA52421C
:10185C0092B2A3F80C242178284603F095FC16F4D8
:10186C00804F41D02A68217832F821309BB223F482
:10187C00E04323F0700343F4404343F0800322F829
:10188C00213031E00023A361AFE7012BC9D12B68D4
:10189C00B3F8502092B2134403EB01130022A3F8C7
:1018AC000424BEE7012AD6D1B3F8502092B21344D7
:1018BC00227803EB02130022A3F80C24CBE716F4D6
:1018CC00804F0DD0286830F821309BB223F4E043D0
:1018DC0023F0700343F4404343F0800320F821309D
:1018EC0094F82430012B12D02A68217832F8213058
:1018FC009BB223F4E04323F0400383F0300343F422
:10190C00004343F0800322F82130002070BD63694E
:10191C0013446361E3691344E361216A23699942C7
:10192C0024D3C91A21626278002A44D12A68B2F8F9
:10193C00501089B20A44217802EB0112B2F8041457
:10194C00C1F30901A2F804143E2B1BD9580913F05A
:10195C001F0F00D10138B2F8041489B2800280B292
:10196C00014341F40041A2F8041426E021B90023FC
:10197C0084F824301346D6E7002384F824302362FD
:10198C000B46D0E74BB9B2F804146FEA41416FEA49
:10199C00514189B2A2F804140FE0590813F0010F59
:1019AC0000D00131B2F8040480B2890289B201433B
:1019BC00A2F8041401E0012A06D09BB222896169C5
:1019CC00286801F065FE8FE72A68B2F8501089B2DA
:1019DC000A44217802EB011299B2A2F80414ECE744
:1019EC000268B2F850309BB2097803EBC10306339E
:1019FC0002EB4302B2F80024C2F30902A36993423A
:101A0C004FD39B1AA361A369002B67D16378002B7A
:101A1C004AD12B68B3F8502092B2134403EB011354
:101A2C00B3F80424C2F30902A3F80424B3F8042481
:101A3C006FEA42426FEA524292B2A3F804242B6836
:101A4C006278002A3DD1B3F8502092B21344227828
:101A5C0003EB0213B3F80C24C2F30902A3F80C2411
:101A6C00B3F80C246FEA42426FEA524292B2A3F8E6
:101A7C000C242178284603F087FB16F4804F7FF462
:101A8C0033AF2A68217832F821309BB223F4E0433B
:101A9C0023F0700343F4404343F0800322F82130D9
:101AAC0022E70023A361AEE7012BC8D12B68B3F862
:101ABC00502092B2134403EB01130022A3F8042428
:101ACC00BDE7012AD5D1B3F8502092B21344227845
:101ADC0003EB02130022A3F80C24CAE716F4804F80
:101AEC000DD1286830F821309BB223F4E04323F069
:101AFC00700343F4404343F0800320F8213094F802
:101B0C002430012B7FF4F0AE636913446361E36905
:101B1C001344E361216A2369994224D3C91A2162CF
:101B2C002A686178002943D1B2F8501089B20A446E
:101B3C00217802EB0112B2F80C14C1F30901A2F8DE
:101B4C000C143E2B1BD9580913F01F0F00D1013870
:101B5C00B2F80C1489B2800280B2014341F4004106
:101B6C00A2F80C1426E021B9002384F82430134683
:101B7C00D6E70023236284F824300B46D0E74BB918
:101B8C00B2F80C146FEA41416FEA514189B2A2F8E4
:101B9C000C140FE0590813F0010F00D00131B2F80A
:101BAC000C0480B2890289B20143A2F80C1401E042
:101BBC00012906D09BB262896169286801F068FD31
:101BCC0092E6B2F8501089B20A44217802EB011265
:101BDC0099B2A2F80C14EDE72DE9F04105462868FE
:101BEC00B0F8443013F4004F00F09282B0F8444047
:101BFC00A3B214F00F0440F0E28013F0100F6BD07E
:101C0C0003889AB213F4006F40F09D8012F4004FD9
:101C1C00E5D0038823F070031B051B0D43F08003F4
:101C2C0003802868B0F850309BB295F8682103EB1C
:101C3C00C203063300EB4303B3F80034C3F30903C8
:101C4C00C5F884318BB1D5F87C1171B1B5F86E2122
:101C5C0002F018F9D5F87C31D5F884211344C5F875
:101C6C007C310021284603F083FA2A68138899B244
:101C7C0013F4006FB3D101F44051B1F5405FAED015
:101C8C00B2F850309BB21A44B2F80C34C3F30903C7
:101C9C00A2F80C34D5F878313E2B77D9590913F0CA
:101CAC001F0F00D10139B2F80C349BB2890289B2F2
:101CBC000B4343F40043A2F80C342A6813889BB2FC
:101CCC0023F4804323F0700383F4405343F4004324
:101CDC0043F08003138082E703889BB223F4E14333
:101CEC0023F070036FEA43436FEA53439BB20380C4
:101CFC002A68B2F850309BB295F8281003EBC10358
:101D0C00023302EB4302B2F80034C3F309036B64F1
:101D1C00EA6B1A44EA630021284603F035FA95F879
:101D2C002430002B3FF45BAF2B6C002B7FF457AFB0
:101D3C0095F824302A6843F08003A2F84C30002335
:101D4C0085F824304BE7B0F850309BB295F86821F9
:101D5C0003EBC203063300EB4303B3F80034C3F3C5
:101D6C000903C5F88431B5F86E2105F52C7102F024
:101D7C0089F82A68138823F070031B051B0D43F0A8
:101D8C0080031380284603F0EBF928E74BB9B2F82F
:101D9C000C346FEA43436FEA53439BB2A2F80C3402
:101DAC008BE7590813F0010F00D00131B2F80C3455
:101DBC0098B28B029BB20343A2F80C347DE730F847
:101DCC0024309EB213F4004F4CD116F0800F3FF428
:101DDC0006AF621C02EB820105EBC101286830F8EA
:101DEC0024309BB223F4E14323F070036FEA4343A6
:101DFC006FEA53439BB220F82430CB78012B00F0D0
:101E0C00F28016F4807F40F07E812868B0F8503064
:101E1C009BB2621C02EB820215F8326003EBC60324
:101E2C00023300EB4303B3F80034C3F3090304EBB0
:101E3C00840205EBC202126C9A4240F24C8104EB14
:101E4C00840705EBC707D21A3A6404EB840205EB4E
:101E5C00C202126C002A40F045813146284603F03C
:101E6C0093F9BCE630F8243023F070031B051B0DEE
:101E7C0043F0800320F8243004EB8401C90001F501
:101E8C00B47105EB010804EB840305EBC30393F871
:101E9C007431002B42D12868B0F850309BB204EB5F
:101EAC00840205EBC20292F8682103EBC2030633ED
:101EBC0000EB4303B3F80074C7F3090717BB04EB3B
:101ECC00840305EBC303D3F884213A44C3F884217B
:101EDC00D3F87C213A44C3F87C21D3F880313BB150
:101EEC0004EB840305EBC303D3F878319F4275D21E
:101EFC0004EB840305EBC30393F86811284603F045
:101F0C0037F962E704EB840105EBC1013B46B1F8FC
:101F1C006E21D1F87C1101F0B5FFD0E704EB8403FE
:101F2C0005EBC30393F86B31022B35D0296804EB16
:101F3C00840205EBC20292F8680131F820309BB2A2
:101F4C0023F4E04323F0700343F4004343F0C00355
:101F5C0021F82030286892F8682130F8223013F4E8
:101F6C00804F20D0B0F850309BB203EBC203023349
:101F7C0000EB4303B3F80074C7F30907002F9ED09E
:101F8C0004EB840105EBC1013B46B1F87021D1F89B
:101F9C007C1101F077FF92E7324641462846FFF765
:101FAC00B3FA07468BE7B0F850309BB203EBC20391
:101FBC00063300EB4303B3F80074C7F30907002F93
:101FCC003FF47DAF04EB840105EBC1013B46B1F856
:101FDC007221D1F87C1101F055FF70E74146286859
:101FEC0001F069FBF1E604EB840305EBC30300226B
:101FFC001A6493F83430FBB116F0400F37D04B789D
:10200C001BBB2B68B3F8502092B21344621C02EB3A
:10201C00820215F8322003EB0213B3F80424C2F346
:10202C000902A3F80424B3F804246FEA42426FEACD
:10203C00524292B2A3F80424013404EB840415F840
:10204C003410284603F0A0F8C9E5012BF4D12B6815
:10205C00B3F8502092B21344621C02EB820215F8C2
:10206C00322003EB02130022A3F80424E4E72A68CD
:10207C00631C03EB830305EBC3035B78D3B9B2F8A2
:10208C0050309BB21344621C02EB820215F83220D2
:10209C0003EB0213B3F80C24C2F30902A3F80C24CB
:1020AC00B3F80C246FEA42426FEA524292B2A3F8A0
:1020BC000C24C1E7012BBFD1B2F850309BB21344B2
:1020CC00621C02EB820215F8322003EB0213002291
:1020DC00A3F80C24B0E704EB840205EBC202002742
:1020EC001764B2E604EB840205EBC202D66B1E4405
:1020FC00D663526C04EB840405EBC4041344636490
:10210C0001F0D9FA6BE532462846FFF753FB66E53A
:10211C000020BDE8F08190F8A832012B0DD010B54D
:10212C000446012380F8A83280F82410006801F0DE
:10213C009FFA002084F8A80210BD0220704710B549
:10214C0084B00446006801F09DFA10F4004F20D1D1
:10215C0010F4806F21D110F4804F2FD110F4005F58
:10216C0037D110F4805F3ED110F4006F40F08780BF
:10217C0010F4007F40F0AE8010F4807F27D02268EE
:10218C00B2F844309BB223F480739BB2A2F8443073
:10219C001DE02046FFF720FD19E02268B2F844301C
:1021AC009BB223F480639BB2A2F84430204602F029
:1021BC00FCFF00212046FFF7AEFF08E02268B2F8D2
:1021CC0044309BB223F480439BB2A2F8443004B059
:1021DC0010BD2268B2F844309BB223F400539BB27A
:1021EC00A2F84430F3E72268B2F840309BB223F0F7
:1021FC0004039BB2A2F840302268B2F840309BB284
:10220C0023F008039BB2A2F84030204602F0F0FF06
:10221C002268B2F844309BB223F480539BB2A2F8EC
:10222C004430D4E7226832F8231004AA02EB4302AC
:10223C0022F8101C0133DBB2072BF3D92268B2F859
:10224C0040309BB243F00103A2F840302268B2F850
:10225C0040309BB223F001039BB2A2F840302368BC
:10226C00B3F8442012F4806FF9D0B3F8442092B242
:10227C0022F4806292B2A3F8442000230BE00023E6
:10228C00DAE7226804A901EB430131F8101C22F8AB
:10229C0023100133DBB2072BF3D92268B2F840309C
:1022AC009BB243F00803A2F840302268B2F84430E5
:1022BC009BB223F400639BB2A2F844302268B2F8BC
:1022CC0040309BB243F00403A2F84030204602F0A9
:1022DC007FFF7CE72268B2F844309BB223F4007392
:1022EC009BB2A2F84430204602F059FF6FE710B5BC
:1022FC000446084611F0800F25D101F0070C0CEBB9
:10230C008C01C90001F5B47E04EB0E010CEB8C0CB6
:10231C0004EBCC0C4FF0000E8CF869E100F00700D8
:10232C0008700A61CB70022B1AD094F8A832012BDA
:10233C0019D0012384F8A832206800F03EFF002059
:10234C0084F8A80210BD01F0070C0CF1010C0CEB89
:10235C008C0104EBC1014FF0010E81F801E0DDE7C7
:10236C0000230B71E1E70220ECE710B501F0070C3C
:10237C000CEB8C01C90001F5B4710CEB8C0E00EB6D
:10238C00CE0ECEF87C21CEF880310024CEF88441DC
:10239C008EF869418EF868C10144006801F08BF930
:1023AC00204610BD38B501F0070404F1010C0CEB0C
:1023BC008C0104EB840E00EBCE0ECEF83C20CEF854
:1023CC00403001228EF84C20CEF848300025CEF853
:1023DC00445000EBC1035A7000F8314019460068B4
:1023EC0001F069F9284638BD38B501F00705426897
:1023FC00954231D804460B4611F0800F1ED101EBEB
:10240C008101C90001F5B471014403EB830300EBB6
:10241C00C303002283F8692101238B700D7094F89B
:10242C00A832012B1AD0012384F8A832206801F0BD
:10243C00A9F85DB1002084F8A80238BD6B1C03EB31
:10244C00830100EBC10101224A70E5E704F52C7110
:10245C00206801F01BF9EDE70120EEE70220ECE724
:10246C000B4601F00F014268914230D810B504467A
:10247C0013F0800F21D103F0070202EB8201C90097
:10248C0001F5B471014402EB820200EBC2020020A0
:10249C0082F8690100228A7003F007030B7094F82C
:1024AC00A832012B15D0012384F8A832206801F042
:1024BC008EF8002084F8A80210BD03F00702013248
:1024CC0002EB820100EBC10101204870E2E7012020
:1024DC0070470220F0E711F0800F0BD001F00701DC
:1024EC00013101EB810100EBC10052B90273C380D1
:1024FC000020704701EB8101C90001F5B47108445B
:10250C00F3E70122027303811B0C4381F0E7000007
:10251C00014B01221A62704700000E4282B0084B38
:10252C001B68084AA2FB03235B0A00FB03F301931D
:10253C0000BF019B5A1E0192002BF9D102B07047CB
:10254C0000000020D34D6210002800F0898270B585
:10255C0082B00446036813B113F00F0F2AD023681E
:10256C0013F0010F40D063682BB1B3F5803F02D05C
:10257C00B3F5A02F24D19C4B5B6803F00C03042B08
:10258C0029D0994B5B6803F00C03082B1ED06368B1
:10259C00B3F5803F55D0002B69D103F1804303F58F
:1025AC0004331A6822F480321A601A6822F48022EA
:1025BC001A604BE040F265118C48FEF72BF8CEE721
:1025CC0040F26B118948FEF725F8D4E7864B5B681F
:1025DC0013F4803FDBD0844B1B6813F4003F03D013
:1025EC006368002B00F03E82236813F0020F00F0AA
:1025FC0089802369012B63D863691F2B66D87A4BBA
:10260C005B6813F00C0F6CD0774B5B6803F00C031A
:10261C00082B61D02369002B00F09A80744B0122A7
:10262C001A60FEF7F3FA05466F4B1B6813F0020FA6
:10263C0040F08580FEF7EAFA401B0228F4D903200B
:10264C0015E2694A136843F480331360636843B33B
:10265C00FEF7DCFA0546644B1B6813F4003FC3D14C
:10266C00FEF7D4FA401B6428F5D90320FFE1B3F53B
:10267C00A02F09D05C4B1A6822F480321A601A68B9
:10268C0022F480221A60E1E703F18043A3F53C3386
:10269C001A6842F480221A601A6842F480321A6076
:1026AC00D4E7FEF7B3FA05464F4B1B6813F4003F13
:1026BC009AD0FEF7ABFA401B6428F5D90320D6E17B
:1026CC0040F29F114948FDF7A5FF95E74FF4D071F3
:1026DC004648FDF79FFF92E7434B5B6813F4803F3E
:1026EC0098D1414B1B6813F0020F03D02369012BC7
:1026FC0040F0BA813C4A136823F0F803616943EA5D
:10270C00C1031360236813F0080F3CD0A369012B9D
:10271C0030D8A369002B6FD0354B0122C3F880242D
:10272C00FEF774FA0546304B5B6A13F0020F27D1A3
:10273C00FEF76CFA401B0228F5D9032097E12A4AD0
:10274C00136823F0F803616943EAC1031360D9E706
:10275C00274B00221A60FEF759FA0546224B1B68DC
:10276C0013F0020FCED0FEF751FA401B0228F5D918
:10277C0003207CE14FF4F0711C48FDF74BFFC8E7D8
:10278C000120FFF7CBFE236813F0040F00F0A480A8
:10279C00E368012B01D9052B41D1134BDB6913F0F5
:1027AC00805F42D1104BDA6942F08052DA61DB690A
:1027BC0003F080530193019B01250E4B1B6813F40E
:1027CC00807F34D0E368012B45D0002B5BD103F123
:1027DC00804303F504331A6A22F001021A621A6A62
:1027EC0022F004021A623BE0001002406C5E00080A
:1027FC000000424200700040A14B0022C3F880242C
:10280C00FEF704FA05469F4B5B6A13F0020FBAD031
:10281C00FEF7FCF9401B0228F5D9032027E140F212
:10282C000F219948FDF7F6FEB7E70025C5E7974A53
:10283C00136843F480731360FEF7E8F90646934B74
:10284C001B6813F4807FBDD1FEF7E0F9801B642870
:10285C00F5D903200BE18B4A136A43F00103136291
:10286C00E36833B3FEF7D2F90646864B1B6A13F0C6
:10287C00020F2FD1FEF7CAF9801B41F28833984220
:10288C00F3D90320F3E0052B09D07E4B1A6A22F012
:10289C0001021A621A6A22F004021A62E0E7794B0A
:1028AC001A6A42F004021A621A6A42F001021A62AF
:1028BC00D6E7FEF7ABF90646724B1B6A13F0020F14
:1028CC0008D0FEF7A3F9801B41F288339842F3D964
:1028DC000320CCE0002D53D1E369022B56D8E369D9
:1028EC00002B00F0C380674A526802F00C02082AE1
:1028FC0000F0A680022B40F08F80236A13B1B3F551
:10290C00803F49D1636A4BB3B3F5802F26D0B3F522
:10291C00002F23D0B3F5402F20D0B3F5801F1DD04E
:10292C00B3F5A01F1AD0B3F5C01F17D0B3F5E01F35
:10293C0014D0B3F5001F11D0B3F5101F0ED0B3F5A2
:10294C00201F0BD0B3F5301F08D0B3F5401F05D0B6
:10295C00B3F5501F02D0B3F5601F23D1484B0022B2
:10296C001A66FEF753F90546464B1B6813F0007FB9
:10297C001ED0FEF74BF9401B0228F5D9032076E058
:10298C00404AD36923F08053D361A5E740F2AD21CF
:10299C003D48FDF73FFEA2E740F2B6213A48FDF76D
:1029AC0039FEAFE740F2B7213748FDF733FED5E7E4
:1029BC00236AB3F5803F1AD032494B6823F4741361
:1029CC00226A606A024313434B602D4B01221A6644
:1029DC00FEF71CF904462B4B1B6813F0007F19D132
:1029EC00FEF714F9001B0228F5D903203FE0A36879
:1029FC0013B1B3F5003F07D1224A536823F40033D7
:102A0C00A1680B435360D7E740F2CD211E48FDF778
:102A1C0001FEF1E700202AE0194B00221A66FEF7AE
:102A2C00F5F80446174B1B6813F0007F06D0FEF731
:102A3C00EDF8001B0228F5D9032018E0002016E061
:102A4C00012B16D00F4B5B6803F48031226A914244
:102A5C0011D103F47013626A93420ED1002006E088
:102A6C0001207047012002E0012000E0002002B0AC
:102A7C0070BD0120FBE70120F9E70120F7E700BF5B
:102A8C0000004242001002406C5E000800700040E2
:102A9C00114B5A6802F00C03042B18D0082B18D1D8
:102AAC00C2F383430D49C85C12F4803F0BD00A4B30
:102ABC005B68C3F340430A4AD35C0A4A02FB00F04A
:102ACC00B0FBF3F07047084B03FB00F07047054870
:102ADC0070470648704700BF00100240BC5E0008FB
:102AEC00B85E0008001BB70000093D0000127A0018
:102AFC00002800F0FF8070B50D460446036813F003
:102B0C000F0F33D0022D37D87E4B1B6803F0070311
:102B1C00AB420BD27B4A136823F007032B431360A1
:102B2C00136803F00703AB4240F0E680236813F010
:102B3C00020F32D013F0040F04D0734A536843F4DD
:102B4C00E0635360236813F0080F04D06E4A536897
:102B5C0043F460535360A368C3B1C02B16D048D85C
:102B6C00A02B13D00ED9B02B10D048E040F2363148
:102B7C006648FDF74FFDC5E740F237316348FDF776
:102B8C0049FDC1E7802B01D0902B38D15E4A5368A8
:102B9C0023F0F003A1680B435360236813F0010F7B
:102BAC0047D06368022B30D86368012B33D0022BDB
:102BBC0038D0554A126812F0020F00F09F8052492B
:102BCC004A6822F0030213434B60FEF71FF80646D7
:102BDC004D4B5B6803F00C036268B3EB820F28D09B
:102BEC00FEF714F8801B41F288339842F0D9032089
:102BFC0073E0E02BCAD0F02BC8D0D02BC6D040F25B
:102C0C005D314248FDF706FDC0E74FF459713F486E
:102C1C00FDF700FDC8E73C4A126812F4003FCED124
:102C2C0001205AE0384A126812F0007FC7D1012007
:102C3C0053E0344B1B6803F00703AB420AD9314A0B
:102C4C00136823F007032B431360136803F0070387
:102C5C00AB4255D1236813F0040F14D0E3685BB179
:102C6C00B3F5806F08D0B3F5A06F05D0B3F5C06F86
:102C7C0002D0B3F5E06F31D1234A536823F4E063FB
:102C8C00E1680B435360236813F0080F15D02369D8
:102C9C005BB1B3F5806F08D0B3F5A06F05D0B3F579
:102CAC00C06F02D0B3F5E06F1ED1174A536823F4FE
:102CBC006053216943EAC1035360FFF7E9FE124BED
:102CCC005B68C3F30313124AD35CD840114B1860F2
:102CDC00114B1868FDF756FF002070BD40F2A23171
:102CEC000A48FDF797FCC7E740F2A9310748FDF702
:102CFC0091FCDAE7012070470120EEE70120ECE7B8
:102D0C000120EAE700200240001002406C5E00083F
:102D1C00285D00080000002008000020014B186806
:102D2C00704700BF0000002008B5FFF7F7FF044B09
:102D3C005B68C3F3C223034AD35CD84008BD00BF11
:102D4C0000100240205D000870B582B00446036894
:102D5C0013F0130F6FD0236813F0010F41D0636889
:102D6C0043B1B3F5807F05D0B3F5007F02D0B3F546
:102D7C00407F65D1514BDB6913F0805F65D14F4BC0
:102D8C00DA6942F08052DA61DB6903F08053019317
:102D9C00019B01254A4B1B6813F4807F57D0474B8E
:102DAC001B6A13F4407313D0626802F440729A42A7
:102DBC000ED0424A136A23F4407042490126C1F8EE
:102DCC0040640026C1F84064106213F0010F52D128
:102DDC003A4A136A23F4407361680B431362002D63
:102DEC005AD1236813F0020F11D0A36843B1B3F585
:102DFC00804F05D0B3F5004F02D0B3F5404F50D102
:102E0C002E4A536823F44043A1680B435360236854
:102E1C0013F0100F50D0E368B3F5800F01D0002BE6
:102E2C0044D1264A536823F48003E1680B43536072
:102E3C00002002B070BD6A212348FDF7EBFB8AE746
:102E4C0072212148FDF7E6FB94E70025A2E71C4A16
:102E5C00136843F480731360FDF7D8FE0646184BD5
:102E6C001B6813F4807F9AD1FDF7D0FE801B642879
:102E7C00F5D90320DDE7FDF7C9FE06460F4B1B6AAB
:102E8C0013F0020FA4D1FDF7C1FE801B41F2883371
:102E9C009842F3D90320CCE7D36923F08053D36154
:102EAC009FE7B7210848FDF7B5FBA9E740F21311DE
:102EBC000548FDF7AFFBB4E70020BAE7001002406D
:102ECC000070004000004242CC5E000810B5044681
:102EDC0010F0130F07D0022C53D0102C09D0012C5A
:102EEC002ED0002010BD4FF4CA712D48FDF792FB77
:102EFC00F1E72C4B5A68186810F08070F2D0C2F3CE
:102F0C0083432949C85C12F4803F15D0254B5B687C
:102F1C00C3F34043254AD25C254BB3FBF2F303FBCE
:102F2C0000F0204B5B6813F4800FDBD14000214B89
:102F3C00A3FB00304008D5E71F4B03FB00F0F0E784
:102F4C00184B1B6A40F202321A40B2F5817F23D033
:102F5C0003F44073B3F5007F04D0B3F5407F09D080
:102F6C000020BFE70F4A526A12F0020FF5D049F663
:102F7C004040B7E70B4B186810F40030B2D00F4844
:102F8C00B0E7FFF7D1FE074B5B68C3F38133013326
:102F9C005B00B0FBF3F0A5E74FF40040A2E700BFE5
:102FAC00CC5E000800100240205F00081C5F000887
:102FBC00001BB700ABAAAAAA00093D00366E01009F
:102FCC0038B50446FDF722FE054623685A6812F010
:102FDC00200F07D1FDF71AFE401BB0F57A7FF4D90C
:102FEC00032004E05A6842F010025A60002038BDF9
:102FFC0038B504460268536823F010035360FDF79C
:10300C0005FE054623685B6813F0200F07D1FDF71A
:10301C00FDFD401BB0F57A7FF4D9032000E00020C1
:10302C0038BDC0B138B505460268536823F00803B3
:10303C005360FDF7EBFD04462B685B6813F0080F3B
:10304C0007D1FDF7E3FD001BB0F57A7FF4D903201F
:10305C0000E0002038BD012070470000002877D028
:10306C0010B5044602683B4B9A4204D04FF48F7162
:10307C003948FDF7CFFAA3683BB1802B05D0B3F5E7
:10308C00807F02D0B3F5407F12D16368A3F5801323
:10309C006FF48012934211D3637CABB1022363743F
:1030AC002046FFF7BEFFA0B104236374012010BDBE
:1030BC0040F21F112848FDF7ADFAE6E74FF4907186
:1030CC002548FDF7A7FAE7E723742046FDF7DCFC5B
:1030DC00E4E72046FFF774FF28BB2268536823F00F
:1030EC0007035360A36823B11C4A136B23F001033D
:1030FC0013631A4AD36A23F46073A1680B43D36237
:10310C006368B3F1FF3F12D02268C3F303419160AF
:10311C0022689BB2D3602046FFF76AFF88B1042374
:10312C0063740120C3E7042363740120BFE701200B
:10313C00FFF7CCFE08B1431EE6E7042363740120BD
:10314C00B5E70023E37301236373A3736374AEE7E2
:10315C000120704700280040305F0008006C0040E0
:10316C0084B001A880E80E00002004B0704703462C
:10317C000020A3F844004FF43F42A3F840207047CE
:10318C00B0F8403023F47C535B045B0CA0F8403067
:10319C00002070470020704784B0844601A880E866
:1031AC000E000123ACF840300020ACF84000ACF825
:1031BC004400ACF8500004B0704710B5034691F8C9
:1031CC0000C030F82C2092B222F4EC4222F07002B3
:1031DC0092B2C878032861D8DFE800F0555C025839
:1031EC00002048F2800E42EA0E0223F82C2091F8BF
:1031FC0000C033F82C2092B222F4E04222F070028C
:10320C0042EA0C0242EA0E0223F82C200A7B002A26
:10321C0040F0DC804A78002A51D0B3F8502092B2AA
:10322C001A440C7802EB0412B1F806C04FEA5C0C9D
:10323C004FEA4C0CA2F800C40C7833F8242012F09E
:10324C00400F0CD033F8242092B222F4E04222F04A
:10325C00700242F4004242F0C00223F82420CA78E3
:10326C00012A1DD0097833F8212092B222F4E042D1
:10327C0022F0400282F0200242F4004242F080022E
:10328C0023F8212017E142F40072AAE742F4C0624D
:10329C000020A6E742F480620020A2E70120A0E70C
:1032AC00097833F8212092B222F4E04222F0400255
:1032BC0042F4004242F0800223F82120FBE0B3F8F4
:1032CC00502092B21A440C7802EB0412B1F806C0EA
:1032DC004FEA5C0C4FEA4C0CA2F808C4B3F850202F
:1032EC0092B21A440C7802EB0412B2F80CC4CCF370
:1032FC00090CA2F80CC40C693E2C39D94FEA541EA7
:10330C0014F01F0F01D10EF1FF3EB2F80CC41FFADE
:10331C008CFC4FEA8E2E1FFA8EFE4CEA0E0C4CF4EF
:10332C00004CA2F80CC40C7833F8242012F4804F13
:10333C000CD033F8242092B222F4E04222F0700236
:10334C0042F4404242F0800223F82420097869BB01
:10335C0033F8212092B222F4804222F0700282F4DF
:10336C00405242F4004242F0800223F82120A2E0B5
:10337C004CB9B2F80C446FEA44446FEA5444A4B21A
:10338C00A2F80C44CFE74FEA540C14F0010F01D013
:10339C000CF1010CB2F80C44A4B24FEA8C2C1FFABD
:1033AC008CFC44EA0C04A2F80C44BCE733F8212052
:1033BC0092B222F4804222F0700282F4005242F463
:1033CC00004242F0800223F8212074E0CA78022ADD
:1033DC0072D00C7833F8242092B222F4E24222F01C
:1033EC00700242F4004242F0800223F82420B3F829
:1033FC00502092B21A4491F800C002EB0C12B1F8B2
:10340C0008C04FEA5C0C4FEA4C0CA2F800C4B3F8AD
:10341C00502092B21A4491F800C002EB0C12B1F891
:10342C000AC04FEA5C0C4FEA4C0CA2F808C44A786C
:10343C00002A50D10C7833F8242012F4804F0CD091
:10344C0033F8242092B222F4E04222F0700242F4CB
:10345C00404242F0800223F824200C7833F82420D8
:10346C0012F0400F0CD033F8242092B222F4E04238
:10347C0022F0700242F4004242F0C00223F82420F1
:10348C0091F800C033F82C2092B222F4804222F042
:10349C00700282F4405248F28004224323F82C201C
:1034AC00097833F8212092B222F4E04222F0400253
:1034BC00224323F8212010BD0C7833F8242092B23B
:1034CC0022F4E04222F0700242F4014242F0800207
:1034DC0023F824208BE70C7833F8242012F4804F47
:1034EC000CD033F8242092B222F4E04222F0700285
:1034FC0042F4404242F0800223F824200C7833F846
:10350C00242012F0400F0CD033F8242092B222F475
:10351C00E04222F0700242F4004242F0C00223F872
:10352C002420CA78012A1ED00C7833F8242092B2B9
:10353C0022F4E04222F0400282F0200242F40042E7
:10354C0042F0800223F82420097833F8212092B22B
:10355C0022F4804222F0700242F4004242F08002D7
:10356C0023F82120A7E70C7833F8242092B222F418
:10357C00E04222F0400242F4004242F0800223F882
:10358C002420E1E74B788BB10A7830F822309BB2DB
:10359C0023F4E04323F0400383F0100343F400438F
:1035AC0043F0800320F82230002070470A7830F86E
:1035BC0022309BB223F4804323F0700383F48053B6
:1035CC0043F4004343F0800320F82230ECE70B7BFC
:1035DC00002B4BD14B7833B30A7830F8223013F0F0
:1035EC00400F0CD030F822309BB223F4E04323F090
:1035FC00700343F4004343F0C00320F82230CB782F
:10360C00012B33D00A7830F822309BB223F4E043FC
:10361C0023F0400383F0200343F4004343F0800382
:10362C0020F8223022E00A7830F8223013F4804F50
:10363C000CD030F822309BB223F4E04323F070031B
:10364C0043F4404343F0800320F822300A7830F8EA
:10365C0022309BB223F4804323F0700383F4405355
:10366C0043F4004343F0800320F8223000207047DD
:10367C0011B98023A0F84C3000207047002070470F
:10368C0000207047B0F8440080B2704700207047AB
:10369C0001335B0800EB420000F5806008E00A781B
:1036AC0091F801C042EA0C2220F8042B0231013BB4
:1036BC00002BF4D1704770B505460C464A78012AA8
:1036CC003BD00B7B002B40F0A6828B690A6993429E
:1036DC0040F284829B1A8B61B5F850309BB22B441C
:1036EC00217803EB0113B3F80C14C1F30901A3F80F
:1036FC000C143E2A40F27682510912F01F0F00D1B1
:10370C000139B3F80C2492B2890289B20A4342F40B
:10371C000042A3F80C24227835F822309BB223F413
:10372C00804323F0700383F4405343F4004343F08D
:10373C00800325F82230002070BD8E6909698E4205
:10374C0000D90E46237B73B3E378022B4DD0236A4A
:10375C009B1B2362217835F8213013F0400F00F0C9
:10376C00F581002A40F0E281B5F850309BB22B4431
:10377C0003EB0113B3F80C24C2F30902A3F80C24D5
:10378C003E2E40F2BA81710916F01F0F00D101399B
:10379C00B3F80C2492B2890289B20A4342F4004273
:1037AC00A3F80C24CBE1B6B23346E2886169284613
:1037BC00FFF76EFFB5F850309BB22B44227803EB29
:1037CC000213A3F80464227835F822309BB223F458
:1037DC00E04323F0400383F0300343F4004343F011
:1037EC00800325F822300020A6E7236A994280F056
:1037FC006681227835F822309BB223F4E04323F023
:10380C00700343F4014343F0800325F82230236A0C
:10381C009B1B2362227835F8223013F0400F00F006
:10382C00A7806378B3BBB5F850309BB22B4403EB45
:10383C000213B3F80C24C2F30902A3F80C243E2E95
:10384C000FD9710916F01F0F00D10139B3F80C24F0
:10385C0092B2890289B20A4342F40042A3F80C24C2
:10386C001AE04EB9B3F80C246FEA42426FEA5242A6
:10387C0092B2A3F80C240FE0720816F0010F00D0DE
:10388C000132B3F80C1489B2920292B20A43A3F833
:10389C000C2401E0012B30D0B3B262896169284657
:1038AC00FFF7F6FE636933446361236A226993422E
:1038BC002DD99B1B23626378002B45D1B5F8503072
:1038CC009BB22B44227803EB0213B3F80424C2F30B
:1038DC000902A3F804243E2E1DD9710916F01F0FFE
:1038EC0000D10139B3F8042492B2890289B20A4397
:1038FC0042F40042A3F8042428E0B5F850309BB2FF
:10390C002B4403EB0213B2B2A3F80C24C4E700223D
:10391C0022621E46CFE74EB9B3F804246FEA424246
:10392C006FEA524292B2A3F804240FE0720816F028
:10393C00010F00D00132B3F8041489B2920292B292
:10394C000A43A3F8042401E0012B06D0B3B2228968
:10395C0061692846FFF79CFE35E7B5F850309BB2FD
:10396C002B44227803EB0213B2B2A3F80424EDE744
:10397C006378B3BBB5F850309BB22B4403EB021306
:10398C00B3F80424C2F30902A3F804243E2E0FD981
:10399C00710916F01F0F00D10139B3F8042492B24B
:1039AC00890289B20A4342F40042A3F804241AE0C3
:1039BC004EB9B3F804246FEA42426FEA524292B213
:1039CC00A3F804240FE0720816F0010F00D00132A6
:1039DC00B3F8041489B2920292B20A43A3F80424F5
:1039EC0001E0012B30D0B3B2228961692846FFF780
:1039FC004FFE636933446361236A226993422DD974
:103A0C009B1B23626378002B45D1B5F850309BB2D9
:103A1C002B44227803EB0213B3F80C24C2F30902F3
:103A2C00A3F80C243E2E1DD9710916F01F0F00D1DE
:103A3C000139B3F80C2492B2890289B20A4342F4D8
:103A4C000042A3F80C2428E0B5F850309BB22B446C
:103A5C0003EB0213B2B2A3F80424C4E700222262DF
:103A6C001E46CFE74EB9B3F80C246FEA42426FEA18
:103A7C00524292B2A3F80C240FE0720816F0010F18
:103A8C0000D00132B3F80C1489B2920292B20A43FC
:103A9C00A3F80C2401E0012B06D0B3B26289616952
:103AAC002846FFF7F5FD8EE6B5F850309BB22B4457
:103ABC00227803EB0213B2B2A3F80C24EDE72178C1
:103ACC0035F8212092B222F4E24222F0700242F444
:103ADC00004242F0800225F82120B5F8502092B225
:103AEC002A44217802EB01129BB2A2F804342289F9
:103AFC0061692846FFF7CCFD65E64EB9B3F80C2496
:103B0C006FEA42426FEA524292B2A3F80C2416E0DA
:103B1C00720816F0010F00D00132B3F80C1489B200
:103B2C00920292B20A43A3F80C2408E0B5F8503084
:103B3C009BB22B4403EB0113B2B2A3F80C24B3B227
:103B4C00628961692846FFF7A3FD3CE6B2BBB5F874
:103B5C0050309BB22B4403EB0113B3F80424C2F393
:103B6C000902A3F804243E2E0FD9710916F01F0F79
:103B7C0000D10139B3F8042492B2890289B20A4304
:103B8C0042F40042A3F8042421E04EB9B3F8042413
:103B9C006FEA42426FEA524292B2A3F8042416E052
:103BAC00720816F0010F00D00132B3F8041489B278
:103BBC00920292B20A43A3F8042408E0B5F85030FC
:103BCC009BB22B4403EB0113B2B2A3F80424B3B29F
:103BDC00228961692846FFF75BFDF4E500228A61C2
:103BEC001A4679E54AB9B3F80C246FEA42426FEAF7
:103BFC00524292B2A3F80C248DE5510812F0010F39
:103C0C0000D00131B3F80C2492B2890289B20A4374
:103C1C00A3F80C247FE5CB78022B4DD0012B40F080
:103C2C002F8189692369994240F2E680C91AA16102
:103C3C00F2B9B5F8502092B22A44217802EB011265
:103C4C00B2F80414C1F30901A2F804143E2B40F29B
:103C5C00D780580913F01F0F00D10138B2F80414A3
:103C6C0089B2800280B2014341F40041A2F80414ED
:103C7C006278002A40F0F680B5F8502092B22A44BF
:103C8C00217802EB0112B2F80C14C1F30901A2F86D
:103C9C000C143E2B40F2CD80590913F01F0F00D1AC
:103CAC000139B2F80C349BB2890289B20B4343F44C
:103CBC000043A2F80C342EE5F2B9B0F850309BB2A8
:103CCC0003440A7803EB0213B3F80424C2F3090289
:103CDC00A3F804240A693E2A31D9510912F01F0FA6
:103CEC0000D10139B3F8042492B2890289B20A4393
:103CFC0042F40042A3F804246378002B51D1B5F8A8
:103D0C0050309BB22B44227803EB0213B3F80C24F3
:103D1C00C2F30902A3F80C2422693E2A28D95109BE
:103D2C0012F01F0F00D10139B3F80C2492B28902A2
:103D3C0089B20A4342F40042A3F80C2433E04AB996
:103D4C00B3F804246FEA42426FEA524292B2A3F8EB
:103D5C000424D1E7510812F0010F00D00131B3F85F
:103D6C00042490B28A0292B20243A3F80424C3E75B
:103D7C004AB9B3F80C246FEA42426FEA524292B24B
:103D8C00A3F80C240FE0510812F0010F00D0013100
:103D9C00B3F80C2490B28A0292B20243A3F80C241A
:103DAC0001E0012B1DD0E369002B3FF4B4AC227869
:103DBC0035F8221044F2400303EA01008B4302D091
:103DCC0000287FF4A8AC35F822309BB223F4E043F2
:103DDC0023F0700343F4004343F0C00325F8223072
:103DEC0099E4B5F850309BB22B44227803EB0213C4
:103DFC00228AA3F80C24D6E70023A3610B4617E70D
:103E0C004BB9B2F804146FEA41416FEA514189B2DF
:103E1C00A2F804142CE7590813F0010F00D001315B
:103E2C00B2F8040480B2890289B20143A2F80414E6
:103E3C001EE74BB9B2F80C346FEA43436FEA5343B5
:103E4C009BB2A2F80C3466E4590813F0010F00D0B1
:103E5C000131B2F80C3498B28B029BB20343A2F836
:103E6C000C3458E4012A7FF456ACB5F8502092B2C9
:103E7C002A44217802EB01129BB2A2F80C344AE4DA
:103E8C00012059E410B45C0800EB420000F580609E
:103E9C0007E030F8042B0A70C2F307224A70023193
:103EAC00013C002CF5D113F0010F01D003880B70ED
:103EBC0010BC7047BFF34F8F0549CA6802F4E0622B
:103ECC00044B1343CB60BFF34F8F00BFFDE700BF24
:103EDC0000ED00E00400FA051B2303800048704746
:103EEC001800002000207047002070470020704709
:103EFC000020704700207047002070470A23038081
:103F0C00004870470C000020D0F8B83293F8182401
:103F1C000A2A11D00A2183F818140E2283F81024CF
:103F2C00002283F8112483F8122483F8132483F8D5
:103F3C00141483F815247047022183F818140022F6
:103F4C0083F8102483F8112483F8122483F81324A3
:103F5C0083F8141483F815247047D0F8B83293F80A
:103F6C0018148A1ED2B2012A05D9052903D00629B4
:103F7C0001D0092913D1022183F81814002283F8E7
:103F8C00102483F8112483F8122483F8132483F863
:103F9C00141483F81524C3F80024C3F804247047C0
:103FAC00062909D810B5D0F8BC32044C2146186843
:103FBC0000F07DFF204610BD00207047440100201A
:103FCC00D0F8B832002283F81924144A127D12F06A
:103FDC00040F0CD0062183F81814002283F8112446
:103FEC0083F8122483F8132483F81414704710B543
:103FFC000446082183F81814002283F8112483F84E
:10400C00122483F8132483F8141400F0EAFAD4F879
:10401C00BC329B689847FFF74DFF00BF180000208B
:10402C0010B582B0D0F8B84294F81834042B04D0F0
:10403C00072B75D0002002B010BDD4F80014002955
:10404C005CD123781BB9D4F80424012A45D0212B48
:10405C001FD0412B34D1D4F80434052B30D16378E4
:10406C00C4F80834A27803EB0223C4F80834E278CD
:10407C0003EB0243C4F80834227903EB0263C4F85F
:10408C000834D0F8BC22D2681846904728B30220D6
:10409C00D1E7D4F80424052ADBD16378C4F80834BA
:1040AC00A27803EB0223C4F80834E27803EB024352
:1040BC00C4F80834227903EB0263C4F808340CE02A
:1040CC000023C4F80434C4F800348DF80030012304
:1040DC00ADF80630694600F0F3FB0020C4F8040488
:1040EC00C4F80004032384F8183484F8110484F809
:1040FC00120484F8130484F814349CE70129ECD9D5
:10410C000239D0F8BC321B69D4F80424D4F8080462
:10411C0000EB8121204698470028DED002208AE758
:10412C00FFF74EFF002086E738B5D0F8B842CB88B1
:10413C00002B5FD0054694F81834022B01D0092BC4
:10414C0050D14888C4F80004CA88C4F80424D0B9F3
:10415C00032A16D9022284F81824002384F8113477
:10416C0084F8123484F8133484F814242370212333
:10417C0063704123A37003222146284600F0B4FE4D
:10418C0044E00922E7E701281CD9092184F8181416
:10419C00002384F8113484F8123484F8133484F82E
:1041AC0014140238D5F8BC325B692146D4F808C423
:1041BC000CEB802098470146B4F80424284600F004
:1041CC0093FE23E00F2284F81824002384F8113482
:1041DC0084F8123484F8133484F81424284600F03C
:1041EC006FFB13E00023C4F80434C4F8003400F06F
:1041FC0067FB0BE0022284F81824002384F81134A6
:10420C0084F8123484F8133484F8142438BD000074
:10421C0038B50546D0F8B84294F81834032B08D0BA
:10422C00062B3CD0062204F58261284600F05CFE89
:10423C0038BDD4F804342BB3042284F8182400239A
:10424C0084F8113484F8123484F8133484F8142468
:10425C00D4F8003413B92378412B09D0D5F8BC32EB
:10426C009B6904F582620121D4F808049847D9E7C8
:10427C00D0F8BC329B6904F582620021D4F80804A2
:10428C009847CFE7052284F81824002384F81134CA
:10429C0084F8123484F8133484F81424C2E794F8A4
:1042AC001934012B13D0002BBCD1104B1B7D13F0F8
:1042BC00040FB7D0022284F81824002384F8113498
:1042CC0084F8123484F8133484F81424AAE70723EE
:1042DC0084F81834012284F81124002284F8122462
:1042EC0084F8132484F814349CE700BF18000020D1
:1042FC0008B5D0F8B812012201F5836100F0F4FD85
:10430C0008BD08B5D0F8B832CA88BAB193F81824E9
:10431C00022A01D0052A0ED14A88C3F80024CA8883
:10432C00C3F80424032183F8181483F814141946D1
:10433C0000F0EFFD17E000F0C3FA14E093F8182436
:10434C00052A01D0022A0FD1012283F81924062153
:10435C0083F81814002283F8112483F8122483F8AC
:10436C00132483F8141408BD00F0AAFAFBE700002C
:10437C0010B50446D0F8B83293F81804821ED2B2A5
:10438C00012A05D9052803D0062801D0092813D104
:10439C00022083F81804002283F8102483F81124D7
:1043AC0083F8122483F8132483F8140483F8152457
:1043BC00C3F80024C3F80424074B5B7D13F0100FE3
:1043CC0006D0204600F00DF9204600F005F910BD8E
:1043DC004888FCF721FCFAE71800002030B583B0C0
:1043EC000023ADF80630D0F8B8320C7814F0600425
:1043FC0029D0202C73D14C78062C20D8DFE804F07F
:10440C001C04080C10141800FFF77BFF002469E053
:10441C00FFF78AFE002465E0FFF7FAFE002461E056
:10442C00FFF772FD00245DE0FFF762FF002459E006
:10443C00FFF793FD002455E0FFF79AFF52E000F0E0
:10444C003FFA02244EE04D780B2D44D8DFE805F0FE
:10445C0006434343434315434343243290F89C3271
:10446C00032B03D000F02CFA02243BE002220DF1C6
:10447C00060100F039FD2C4634E04B881B0A212B39
:10448C0004D00022114600F02FFD2BE0CA88092A27
:10449C0028BF09221549F6E790F89C22032A03D07D
:1044AC0000F00EFA02241DE0012203F20C4100F090
:1044BC001BFD17E08C7854B990F89C22032A02D18A
:1044CC00C3F80C440EE000F0FBF902240AE000F003
:1044DC00F7F9022406E000F0F3F9022402E000F000
:1044EC00EFF90224204603B030BD00BF2A000020A3
:1044FC00D0F8B8320022C3F80024C3F804240221F7
:10450C0083F8181483F8102483F81414D0F8B832F4
:10451C0073B110B50446D0F8BC329B689847D4F8F8
:10452C00B80200F0F5FE0023C4F8B832002010BD2C
:10453C000020704710B5044640F21C4000F0E4FE29
:10454C00C4F8B80208B30023C0F80C344FF0006272
:10455C00C0F80824C0F80034C0F8043480F81934CA
:10456C00022280F8182480F8103480F8113480F876
:10457C00123480F8133480F8142480F81534D4F8ED
:10458C00BC325B68984710B910BD0220FCE70220D2
:10459C00FAE709B1C0F8BC120020704798B108B511
:1045AC000346D0F8B40210B10020C3F8B40209B12C
:1045BC00C3F8B012012183F89C121A70184600F04F
:1045CC001DFE002008BD0220704719B1C0F8B412BE
:1045DC00002070470220704708B500F03BFE002019
:1045EC0008BD10B50446D0F8B4325B680179984721
:1045FC00204600F037FE002010BD08B5D0F8B432CC
:10460C002BB11B68984700B908BD0220FCE70220BB
:10461C00FAE708B5D0F8B4325B689847002008BDBB
:10462C0038B5044600F52A75284600F035F9012303
:10463C00C4F89432B4F8AE32C4F8983294F8A81294
:10464C0001F01F03012B0ED0022B11D02BB101F066
:10465C008001204600F019FE03E02946204600F0B8
:10466C00D1FA002038BD2946204600F0FFFAF8E7C1
:10467C002946204600F02AFBF3E738B504460D46E0
:10468C0091BB1346D0F89422032A03D0052A24D0D8
:10469C00084633E0D0F86011D0F8642191420DD96E
:1046AC00891AC0F860118A4206D98AB21946204686
:1046BC0000F03EFC284621E092B2F7E7D0F8B43285
:1046CC001B691BB190F89C22032A04D0204600F0F1
:1046DC0037FC284612E09847F8E70021C0F89412FE
:1046EC0000F0D3FD284609E0D0F8B4329B6933B111
:1046FC0090F89C22032A04D19847002038BD022050
:10470C00FCE70220FAE738B504460D46002953D1E0
:10471C001346D0F89422022A0CD0042A00D01AB9DD
:10472C008021204600F0B1FD94F8A032012B3ED040
:10473C00284638BD026A416A8A421BD8C269B2FB5C
:10474C00F1F301FB13232BB9914203D8D0F8983223
:10475C009A421CD3D4F8B432DB681BB194F89C2277
:10476C00032A21D08021204600F08FFD204600F046
:10477C00F2FBD9E7521A026292B2194600F0C1FB61
:10478C0000231A461946204600F0B6FDCCE700225D
:10479C00114600F0B6FB0021C4F898120B460A46ED
:1047AC00204600F0A9FDBFE720469847DAE7002332
:1047BC0084F8A0322846BCE7D0F8B4325B6933B138
:1047CC0090F89C22032A04D198470020B1E70220DC
:1047DC00AFE70220ADE770B5044640230022114636
:1047EC0000F048FD0125C4F858514026C4F8646116
:1047FC00334600228021204600F03CFDA561666214
:10480C0084F89C520023C4F894326360C4F8A43238
:10481C00D4F8B8322BB1D4F8B4325B6800212046FE
:10482C009847002070BD01740020704790F89C32AE
:10483C0080F89D32042380F89C320020704790F859
:10484C009C32042B01D00020704790F89D3280F8E8
:10485C009C32F8E708B590F89C32032B01D000206D
:10486C0008BDD0F8B432DB69002BF8D09847F6E7D6
:10487C000346002002E00130C0B201331A78002A4E
:10488C00F9D1704708B54B88012B00D008BDC0F892
:10489C00A43200F055FBF9E70B7803704B784370AA
:1048AC008B78CA7803EB022343800B794A7903EBAC
:1048BC00022383808B79CA7903EB0223C380704770
:1048CC0010B50446802100F0E0FC0021204600F0E9
:1048DC00DCFC10BD30B583B005460C460023ADF8AA
:1048EC00063049880B0A013B062B00F2AC80DFE84E
:1048FC0003F004182CAAAA8E9B00D0F8B0321B68C7
:10490C000DF10601007C9847BDF806201AB1E3882A
:10491C00002B40F09C80E388002B00F0A28003B0B9
:10492C0030BD037C43B9D0F8B4329B6A0DF106005C
:10493C00984702234370E7E7D0F8B432DB6A0DF1F5
:10494C000600984702234370DEE7C9B2052952D806
:10495C00DFE801F003101D2A3744D0F8B0325B6851
:10496C0023B10DF10601007C9847CDE72146FFF7F6
:10497C00A7FFD4E7D0F8B0329B6823B10DF1060144
:10498C00007C9847C0E72146FFF79AFFC7E7D0F8AD
:10499C00B032DB6823B10DF10601007C9847B3E718
:1049AC002146FFF78DFFBAE7D0F8B0321B6923B16F
:1049BC000DF10601007C9847A6E72146FFF780FF22
:1049CC00ADE7D0F8B0325B6923B10DF10601007C84
:1049DC00984799E72146FFF773FFA0E7D0F8B0326C
:1049EC009B6923B10DF10601007C98478CE72146A9
:1049FC00FFF766FF93E7D0F8B4329B6B1BB10DF158
:104A0C000602984780E72146FFF75AFF87E7037CA9
:104A1C0033B9D0F8B4325B6B0DF10600984773E7ED
:104A2C002146FFF74DFF7AE7037C43B9D0F8B43247
:104A3C001B6B0DF1060098470723437064E7214672
:104A4C00FFF73EFF6BE72146FFF73AFF67E79A4215
:104A5C0028BF1A46ADF806200146284600F044FA55
:104A6C0059E7284600F06CFA59E738B504468B88AC
:104A7C00F3B9CB88E3B94B887F2B19D803F07F05AA
:104A8C0090F89C32032B0CD080F89E52294600F0F3
:104A9C0023FC204600F054FA35B1022384F89C32F2
:104AAC0009E0FFF70DFF06E0012384F89C3202E0D9
:104ABC002046FFF705FF38BD38B504460D4689780A
:104ACC00284B197001290ED890F89C32022B0ED06D
:104ADC00032B21D02946FFF7F3FE224B19782046F1
:104AEC00FFF797FD02E02946FFF7EAFE38BD81B1DA
:104AFC004160032380F89C32FFF77FFD022803D02E
:104B0C00204600F01DFAF1E729462046FFF7D8FEB3
:104B1C00ECE700F015FAE9E789B1436899421DD03A
:104B2C00D9B2FFF776FD0F4B197861602046FFF77D
:104B3C0064FD02280DD0204600F002FAD6E70223CD
:104B4C0080F89C324160FFF764FD204600F0F8F9D4
:104B5C00CCE729462046FFF7B3FEC7E700F0F0F993
:104B6C00C4E700BF4302002008B5CB88012B0AD153
:104B7C0090F89C32022B09D9032B09D10122011D7B
:104B8C0000F0B2F901E0FFF79BFE08BD5BB213B970
:104B9C00FFF796FEF9E70146002341F8083F012292
:104BAC0000F0A2F9F1E708B590F89C32013B022B1A
:104BBC0012D8CB88022B0CD10123C360D0F8A432BD
:104BCC000BB10323C360022200F10C0100F08CF93D
:104BDC0008BDFFF775FEFBE7FFF772FEF8E708B5B7
:104BEC0090F89C32013B022B09D84B88012B00D04A
:104BFC0008BD0023C0F8A43200F0A2F9F8E7FFF7D3
:104C0C005FFEF5E708B50B7803F06003202B05D0A9
:104C1C00402B03D043B1FFF753FE03E0D0F8B4327E
:104C2C009B689847002008BD4B78092B1BD8DFE800
:104C3C0003F011171A141A08051A0E0BFFF74AFE87
:104C4C00F0E7FFF712FFEDE7FFF736FFEAE7FFF7B4
:104C5C008BFFE7E7FFF7A7FFE4E7FFF713FEE1E7BA
:104C6C00FFF7BDFFDEE7FFF72BFEDBE738B50546A8
:104C7C000C460B7803F06003202B06D0402B04D09D
:104C8C001BB1FFF71DFE002038BD95F89C32013B8F
:104C9C00022B16D82379012B0ED8D5F8B4329B6889
:104CAC00214628469847E388002BECD10028EAD10E
:104CBC00284600F045F9E6E721462846FFF700FEB6
:104CCC00E1E721462846FFF7FBFDDCE770B505461A
:104CDC008B880C7804F06004202C07D0DAB2402CBE
:104CEC0004D05CB1FFF7ECFD002405E0D5F8B4323C
:104CFC009B68284698470024204670BD202C09D07C
:104D0C004E78012E33D0032E0AD0002E55D0FFF74B
:104D1C00D7FDF1E7D0F8B4329B6898470446EBE72F
:104D2C0090F89C32022B04D0032B11D0FFF7C8FD56
:104D3C00E2E70AB1802A03D12846FFF7C1FDDBE781
:104D4C00114600F0A2FA8021284600F09EFAD3E723
:104D5C004B8823B91AB1802A01D0CB881BB12846C5
:104D6C0000F0EEF8C8E7114600F08FFAF7E790F87C
:104D7C009C32022B04D0032B11D0FFF7A1FDBBE713
:104D8C000AB1802A03D12846FFF79AFDB4E71146F1
:104D9C0000F07BFA8021284600F077FAACE74B88CC
:104DAC00002BA9D112F07F0F03D1284600F0C8F8D0
:104DBC00A2E7114600F071FAF7E790F89C0202287E
:104DCC0006D0032829D02846FFF77AFD344693E70E
:104DDC000AB1802A13D113F0800F15D102F07F0293
:104DEC0002EB8202910001F5A871294404310023E1
:104DFC000B600222284600F077F834467CE7284600
:104E0C00FFF75EFD344677E702F07F0202EB820289
:104E1C009100103129440431E9E75BB2002B1FDB10
:104E2C0002F00F0000EB800005EB8000D0F8580179
:104E3C0020B3002B27DB02F07F0303EB83039C00E2
:104E4C0004F5A8742C4404340AB1802A24D100231C
:104E5C00236002222146284600F046F834464BE7F0
:104E6C0002F00F0000EB800005EB80008069002849
:104E7C00DFD12846FFF724FD34463DE72846FFF7EF
:104E8C001FFD344638E702F07F0303EB83039C00DD
:104E9C0010342C440434D7E71146284600F005FAA8
:104EAC0010B101232360D4E700232360D1E7D0B1F4
:104EBC0070B50D4616460446FFF7DAFC431C5B0042
:104ECC009BB233802B7003236B70022307E00134F9
:104EDC005A1CD2B2E8540233DBB20021A954207818
:104EEC000028F4D170BD704708B513460222C0F8F3
:104EFC009422C36103620A46002100F0F5F90020F8
:104F0C0008BD08B513460A46002100F0EDF9002053
:104F1C0008BD08B513460322C0F89422C0F85C31D2
:104F2C00C0F860310A46002100F0E6F9002008BD07
:104F3C0008B513460A46002100F0DEF9002008BD32
:104F4C0008B50423C0F8943200231A46194600F021
:104F5C00CBF9002008BD08B50523C0F89432002316
:104F6C001A46194600F0C8F9002008BD08B5002201
:104F7C000F491048FFF712FB70B90F490D48FFF7A6
:104F8C0024FB60B90D490B48FFF703FB50B90948E6
:104F9C00FFF722FB48B908BDFBF7C6FAEDE7FBF7B4
:104FAC00C3FAEFE7FBF7C0FAF1E7FBF7BDFAF2E75C
:104FBC00A40000204402002034000020C000002087
:104FCC0012230B80004870479000002004230B80B4
:104FDC00004870478C000020002393421ED200B57D
:104FEC0010E00CF1370C01F813C000014FEA430C30
:104FFC000CF1010C4FF0000E01F80CE00133DBB2A8
:10500C00934209D24FEA107CB0F1204FE9D20CF157
:10501C00300C01F813C0E8E75DF804FB70470000A2
:10502C0038B50B4BD3F8E807D3F8EC47D3F8F03787
:10503C00C01800D138BD074D08222946FFF7CCFF18
:10504C00042205F110012046FFF7C6FFF2E700BF6E
:10505C0000F0FF1F7200002008B51A230B80FFF729
:10506C00DFFF014808BD00BF7000002008B50A46EC
:10507C0028B905490548FFF71AFF034808BD02493E
:10508C000248FFF714FFF8E7080500207C5F0008D2
:10509C0010B50A46034C21460348FFF708FF20468B
:1050AC0010BD00BF080500209C5F000808B50A462B
:1050BC0028B905490548FFF7FAFE034808BD02491F
:1050CC000248FFF7F4FEF8E708050020B05F00087F
:1050DC0008B50A4628B905490548FFF7E8FE034814
:1050EC0008BD02490248FFF7E2FEF8E70805002078
:1050FC00BC5F0008002070470020704700207047FC
:10510C00002070470020704700207047022805D807
:10511C00DFE800F005040200012070470220704710
:10512C0002680E4B9A4200D0704700B583B003F56D
:10513C00DA33DA6942F40002DA61DB6903F4000362
:10514C000193019B002211461420FBF7ADFF1420A4
:10515C00FBF7CEFF03B05DF804FB00BF005C004022
:10516C0008B500F52C71D0F8EC02FFF759FA08BD20
:10517C0008B501EB810300EBC303D3F87C21D0F815
:10518C00EC02FFF77AFA08BD08B501EB810300EBDE
:10519C00C303DA6BD0F8EC02FFF7B5FA08BD08B51B
:1051AC00D0F8EC02FFF756FB08BD10B50446836837
:1051BC00022B09D10121D4F8EC02FFF734FBD4F80F
:1051CC00EC02FFF708FB10BDFBF7AEF9F2E70000AD
:1051DC0010B50446D0F8EC02FFF728FBA36923B105
:1051EC00024A136943F00603136110BD00ED00E0A1
:1051FC0008B5D0F8EC02FFF722FB08BD10B5044649
:10520C001248C0F8EC42C4F8C002114B03600823EA
:10521C0043600223836000238361C3610362FCF754
:10522C0001FA78B9182300221146D4F8C002FDF710
:10523C0052F9582300228021D4F8C002FDF74BF913
:10524C00002010BDFBF770F9ECE700BF280B002025
:10525C00005C004008B5D0F8C002FCF779FAFFF703
:10526C0055FF08BD08B5D0F8C002FCF78AFAFFF765
:10527C004DFF08BD08B594461A466346D0F8C002E7
:10528C00FDF735F8FFF742FF08BD08B5D0F8C002AE
:10529C00FDF7AAF8FFF73AFF08BD08B5D0F8C00231
:1052AC00FDF7DEF8FFF732FF08BDD0F8C03211F081
:1052BC00800F08D101F07F0101EB810103EBC103E9
:1052CC0093F86A01704701F07F01013101EB810114
:1052DC0003EBC1039878704708B5D0F8C002FCF70F
:1052EC001AFFFFF713FF08BD08B5D0F8C002FDF791
:1052FC0059F8FFF70BFF08BD08B5D0F8C002FDF751
:10530C0034F8FFF703FF08BD00487047080700207A
:10531C007047704770B5860747D0541E002A3ED0A0
:10532C000346CAB201E0013C39D303F8012B9D07B7
:10533C00F9D1032C2CD9CDB205EB05250F2C1A462F
:10534C0005EB054534D9A4F1100C2CF00F0603F134
:10535C00100EB6444FEA1C1C156055609560D56064
:10536C0010327245F8D10CF1010214F00C0F03EB62
:10537C00021204F00F0C13D0ACF1040323F003035E
:10538C000433134442F8045B9A42FBD10CF003043F
:10539C002CB1C9B21C4403F8011B9C42FBD170BD5B
:1053AC0064461346002CF4D1F9E703461446C0E7D3
:1053BC00A446E1E770B50F4B0F4DAB42A3EB0506CE
:1053CC0007D00024B61055F8043B01349847A64288
:1053DC00F9D800F083F8094D094B5E1BAB424FEA3C
:1053EC00A60606D0002455F8043B01349847A64283
:1053FC00F9D870BD2C6000082C6000082C600008E7
:10540C0034600008704700BF704700BF024B13B1F7
:10541C00024800F005B8704700000000395400083D
:10542C00002301461A46184600F014B838B5074D4B
:10543C00074C2C1BA41005D0013C55F8043D984793
:10544C00002CF9D1BDE8384000F04EB838600008A7
:10545C00346000082DE9F047DFF874A00646DAF84E
:10546C00000098460F469146FFF7CCFF194B1C687D
:10547C0024B365681F2D24DC5EB96B1C0235DAF889
:10548C000000636044F82570FFF7BEFF0020BDE804
:10549C00F087012304EB8501C1F88890D4F88821AA
:1054AC00AB401A43022EC4F88821C1F80881E4D11C
:1054BC00D4F88C211A43C4F88C21DEE7064C1C600E
:1054CC00D7E7DAF80000FFF79FFF4FF0FF30DEE779
:1054DC00DC0000201C0E0020200E0020F8B500BFC0
:1054EC00F8BC08BC9E467047F8B500BFF8BC08BCB9
:0454FC009E46704711
:1055000057414E54494E00000000000000000000CA
:105510000000000000000000000000F80000000093
:10552000000000333000000000100C06100C0600D4
:10553000000000000000000040C07840C07840003B
:10554000043F04043F040400007088FC083000009D
:10555000001820FF211E0000F008F000E0180000F5
:1055600000211C031E211E0000F0088870000000AE
:105570001E2123241927211010160E000000000000
:105580000000000000000000000000E0180402001D
:10559000000000071820400000020418E00000008E
:1055A0000040201807000000404080F0804040008C
:1055B0000202010F01020200000000F000000000E2
:1055C0000101011F010101000000000000000000B6
:1055D00080B070000000000000000000000000002B
:1055E00000010101010101010000000000000000B4
:1055F000003030000000000000000000806018044F
:10560000006018060100000000E010080810E0002B
:10561000000F102020100F00001010F800000000F4
:105620000020203F2020000000700808088870003B
:1056300000302824222130000030088888483000BB
:105640000018202020110E000000C02010F80000DB
:1056500000070424243F240000F808888808080074
:105660000019212020110E0000E010888818000089
:10567000000F112020110E0000380808C83808005B
:105680000000003F000000000070880808887000DB
:10569000001C222121221C0000E010080810E0005C
:1056A0000000312222110F00000000C0C0000000E5
:1056B000000000303000000000000080000000000A
:1056C0000000806000000000000080402010080002
:1056D00000010204081020004040404040404000CB
:1056E00004040404040404000008102040800000A6
:1056F0000020100804020100007048080808F000AB
:105700000000003036010000C030C828E810E0007A
:105710000718272423140B000000C038E000000005
:10572000203C23020227382008F88888887000006F
:10573000203F202020110E00C03008080808380043
:10574000071820202010080008F808080810E000BA
:10575000203F202020100F0008F88888E80810005B
:10576000203F20202320180008F88888E80810002F
:10577000203F200003000000C03008080838000067
:1057800007182020221E020008F808000008F80868
:10579000203F210101213F20000808F808080000EF
:1057A0000020203F2020000000000808F808080022
:1057B000C08080807F00000008F888C0281808009A
:1057C000203F20012638200008F8080000000000D3
:1057D000203F20202020300008F8F800F8F80800CA
:1057E000203F003F003F200008F830C00008F808C4
:1057F000203F200007183F00E01008080810E000D4
:105800000F10202020100F0008F808080808F000EA
:10581000203F210101010000E01008080810E0000D
:105820000F18242438504F0008F8888888887000A2
:10583000203F2000030C3020007088080808380042
:105840000038202121221C00180808F80808180038
:105850000000203F2000000008F808000008F808B9
:10586000001F202020201F000878880000C838086A
:10587000000007380E010000F80800F80008F800E2
:10588000033C0700073C030008186880806818087C
:1058900020302C03032C30200838C800C8380800FA
:1058A0000000203F2000000010080808C838080049
:1058B0002038262120201800000000FE02020200ED
:1058C0000000007F40404000000C30C0000000009D
:1058D000000000010638C00000020202FE000000C5
:1058E000004040407F00000000000402020204006B
:1058F00000000000000000000000000000000000A8
:10590000808080808080808000020204000000008F
:105910000000000000000000000080808080000087
:105920000019242222223F2008F800808000000075
:10593000003F112020110E00000000808080000038
:10594000000E112020201100000000808088F80047
:10595000000E112020103F20000080808080000079
:10596000001F222222221300008080F088888818DD
:105970000020203F202000000000808080808000E8
:10598000006B94949493600008F80080808000007D
:10599000203F210000203F20008098980000000058
:1059A0000020203F20200000000000809898000088
:1059B00000C08080807F000008F8000080808000A8
:1059C000203F24022D302000000808F800000000CD
:1059D0000020203F20200000808080808080800088
:1059E000203F20003F20003F80800080808000001A
:1059F000203F210000203F200000808080800000A8
:105A0000001F202020201F008080008080000000D8
:105A100080FFA12020110E00000000808080800007
:105A2000000E112020A0FF808080800080808000F8
:105A300020203F2120000100000080808080800025
:105A40000033242424241900008080E0808000009A
:105A50000000001F202000008080000000808000E7
:105A6000001F202020103F20808080000080808048
:105A700000010E30080601008080008000808080D8
:105A80000F300C030C300F000080800080808000FD
:105A90000020312E0E312000808080000080808028
:105AA00080818E70180601000080808080808000D8
:105AB0000021302C2221300000000000807C0202F6
:105AC00000000000003F404000000000FF00000018
